:100000000C9490080C94D7080C94D7080C94D7083B
:100010000C94D7080C94D7080C94D7080C94D708E4
:100020000C94D7080C94D7080C94D92F0C94AF30AB
:100030000C94451C0C94D7080C94D7080C94D70842
:100040000C94D7080C94D7080C94D7080C94D708B4
:100050000C94D7080C948B270C94D7080C94D708D1
:100060000C94D7080C94D7080C94D7080C94D70894
:100070000C94D7080C94D7080C94D7080C94D70884
:100080000C94D7080C94D7080C94D7080C94D70874
:100090000C94D7080C94D7080C94D7080C94D70864
:1000A0000C94D7080C94D7080C94D7080501098044
:1000B000A101850319012AB700150126B700950192
:1000C00075108100C0050C0901A101850419012AE0
:1000D000A002150126A002950175108100C00660DE
:1000E000FF0961A1010962150026FF00952075082E
:1000F00081020963150026FF00952075089102C052
:1001000005010906A101050719E029E715002501E8
:10011000950875018102950175088101050719008F
:1001200029FF150026FF00950675088100050819AE
:10013000012905950575019102950175039101C08D
:1001400000AF0000000000003E5B4F5B3E003E6BD6
:100150004F6B3E001C3E7C3E1C00183C7E3C180051
:100160001C577D571C001C5E7F5E1C0000183C184D
:100170000000FFE7C3E7FF00001824180000FFE7B6
:10018000DBE7FF0030483A060E00262979292600D1
:10019000407F05050700407F05253F005A3CE73CAE
:1001A0005A007F3E1C1C0800081C1C3E7F001422C5
:1001B0007F2214005F5F005F5F0006097F017F0000
:1001C000006689956A0060606060600094A2FFA28A
:1001D000940008047E04080010207E201000080807
:1001E0002A1C0800081C2A0808001E101010100005
:1001F0000C1E0C1E0C0030383E383000060E3E0E31
:10020000060000000000000000005F000000000782
:1002100000070000147F147F1400242A7F2A120094
:100220002313086462003649562050000008070373
:100230000000001C224100000041221C00002A1C7A
:100240007F1C2A0008083E0808000080703000006B
:10025000080808080800000060600000201008047A
:1002600002003E5149453E0000427F400000724975
:10027000494946002141494D33001814127F1000AE
:100280002745454539003C4A49493100412111097A
:100290000700364949493600464949291E000000F1
:1002A0001400000000403400000000081422410047
:1002B00014141414140000412214080002015909F6
:1002C00006003E415D594E007C1211127C007F49B0
:1002D000494936003E41414122007F4141413E00B3
:1002E0007F49494941007F09090901003E414151C7
:1002F00073007F0808087F0000417F410000204014
:10030000413F01007F08142241007F4040404000EF
:100310007F021C027F007F0408107F003E414141A4
:100320003E007F09090906003E4151215E007F0918
:100330001929460026494949320003017F0103007B
:100340003F4040403F001F2040201F003F403840BA
:100350003F00631408146300030478040300615928
:10036000494D4300007F4141410002040810200034
:10037000004141417F00040201020400404040402E
:1003800040000003070800002054547840007F28F4
:1003900044443800384444442800384444287F000A
:1003A00038545454180000087E09020018A4A49C74
:1003B00078007F080404780000447D40000020405D
:1003C000403D00007F102844000000417F400000B5
:1003D0007C04780478007C080404780038444444A1
:1003E0003800FC182424180018242418FC007C0869
:1003F0000404080048545454240004043F442400D6
:100400003C4040207C001C2040201C003C403040F0
:100410003C004428102844004C9090907C00446498
:10042000544C4400000836410000000077000000F2
:100430000041360800000201020402003C26232687
:100440003C00000000000000404040F0F8F8FF3899
:10045000FFF8F83FF8F8FF38FFF8F8F040404000A8
:10046000000000000080C0C0C0800000C0C080004C
:10047000000080C0C000C0C0000080C0C0000000FC
:100480000000C0C0C0C0C000C0C00000000000002C
:10049000000000000000000000000000000000005C
:1004A000000000000000000000000000000000004C
:1004B000000000000000000000000000000000003C
:1004C00000C0F0F8FC3E1E06010000007F414141E3
:1004D0007F007F4141417F000080C0E07E5B4F5B39
:1004E000FEC00000C000DCD7DEDEDED7DC00C000CE
:1004F00000000000000000000000000000000000FC
:100500000000000000000000494949FFFFFFFFE034
:10051000DFBFBF00BFBFDFE0FFFFFFFF494949006A
:10052000000000001F3F6060E0BF1F007F7F071ECC
:10053000381E077F7F007F7F0E1F3B716000000029
:1005400000007F7F0C0C0C007E7E007F7E0303008A
:100550007F7E03037E7E03037F7E000F3E703C069A
:100560003C703E0F00327B49493F7E007F7E030393
:10057000001E3F69696F26000000000000000000B7
:1005800000030F1F3F3C7870600000007F41414135
:100590007F007F4141417F00307B7F7830202030D9
:1005A000787F3B0003000F7F0F0F0F7F0F000300CA
:1005B000000000000000000000000000000000003B
:1005C0000000000000000000010101070F0F7F0F75
:1005D0007F0F0F7E0F0F7F0F7F0F0F0701010100AD
:1005E0000000000000000000000101000000000009
:1005F00000000000000000000000000000000000FB
:1006000000000000000000000000000000000000EA
:1006100000000000000000000000000000000000DA
:1006200000000000000000000000000000000000CA
:1006300000000000000000000000000000000000BA
:1006400000000000000000000000000000000000AA
:10065000000000000000000000000000000000009A
:10066000000000000000000000000000000000008A
:10067000000000000000000000000000000000007A
:10068000000009025B00030100A0FA090400000158
:100690000301010009211101000122400007058129
:1006A0000308000A090401000203000000092111E7
:1006B0000100012222000705820320000107050333
:1006C00003200001090402000103000000092111B8
:1006D0000100012232000705840320000A120110E4
:1006E0000100000008464602000100010203011C4F
:1006F000037600690061006C003A00660036003441
:10070000006300320062003300630000000A0350FF
:10071000007500630061000000180346006F006F61
:10072000007400460069006E006700650072007387
:100730000000000403090400DA0281FFD9F1DB2084
:10074000A4A62EAF00A0C000A1C800AED580A81FEF
:10075000D300408D1420001E0F0500047F3F1F644E
:100760003214643214783C1E1E140A050000000086
:100770000000000000000000000000000000000079
:100780000000000000000000000000000000000069
:10079000808060601818060606060606060606062D
:1007A0000606061818606080800000000000000047
:1007B000FFFF000000001F1F00000000001F1F00BF
:1007C00000000000000000FFFF000000000000002B
:1007D000FFFF0000000003030C0C0C0C0C030300D3
:1007E00000000000000000FFFF000000000000000B
:1007F000010106061818606018186060808060604B
:1008000080806060181806070100000000000000EA
:1008100000000000000000000000000001010000D6
:1008200001010000000000000000000000000000C6
:1008300000000000000000000000000000000000B8
:1008400000000000000000000000000000000000A8
:100850000000000000000000000000000000000098
:100860000000000000000000000000000000000088
:100870000000000000000000000000000000000078
:100880000000000000000000000000000000000068
:100890000000000000000000000000000000000058
:1008A0000000000000000000000000000000000048
:1008B0000000000000000000000000000000000038
:1008C0000000000000000000000000000000000028
:1008D0000000000000000000000000000000000018
:1008E0000000000000000000000000000000000008
:1008F00000000000000000000000000000000000F8
:1009000000000000000000000000000000000000E7
:1009100000000000000000000000000000000000D7
:1009200000000000000000000000000000000000C7
:1009300000000000000000000000000000000000B7
:1009400000000000000000000000000000000000A7
:100950000000000000000000000000000000000097
:100960000000000000000000000000000000000087
:100970000000000000000000000000000000000077
:100980000000000000000000000000000000000067
:100990000000000000000000000000000000000057
:1009A0000000000000000000000000000000000047
:1009B0000000000000000000000000000000000037
:1009C0000000000000000000000000000000000027
:1009D0000000000000000000000000000000000017
:1009E0000000000000000000000000000000000007
:1009F000C0C030303030303030303030303030C047
:100A0000C00000000000000000000000FCFC030328
:100A10000000F8F80000000000F8F80000000000F6
:100A2000000303FCFC00000000000000FFFF0000CA
:100A30000000181860606060601818000000000076
:100A4000000000FFFF000000000000000F0F30302A
:100A5000C0C00000C0C00000000000000000000096
:100A6000C0C0303F0F000000000000000000000088
:100A700000000303000003030C0C03030C0C03032E
:100A80000000000000000000000000000000000066
:100A90000000000000000000000000000000000056
:100AA0000000000000000000000000000000000046
:100AB0000000000000000000000000000000000036
:100AC0000000000000000000000000000000000026
:100AD0000000000000000000000000000000000016
:100AE0000000000000000000000000000000000006
:100AF00000000000000000000000000000000000F6
:100B000000000000000000000000000000000000E5
:100B100000000000000000000000000000000000D5
:100B200000000000000000000000000000000000C5
:100B300000000000000000000000000000000000B5
:100B400000000000000000000000000000000000A5
:100B50000000000000000000000000000000000095
:100B60000000000000000000000000000000000085
:100B70000000000000000000000000000000000075
:100B80000000000000000000000000000000000065
:100B90000000000000000000000000000000000055
:100BA0000000000000000000000000000000000045
:100BB0000000000000000000000000000000000035
:100BC0000000000000000000000000000000000025
:100BD0000000000000000000000000000000000015
:100BE0000000000000000000000000000000000005
:100BF00000000000000000000000000000000000F5
:100C000000000000000000000000000000000000E4
:100C100000000000000000000000000000000000D4
:100C200000000000000000000000000000000000C4
:100C300000000000000000000000000000000000B4
:100C400000000000000000000000000000000000A4
:100C50000000000000000000000000000000000094
:100C60000000000046554E430A00424153450A0029
:100C70000A004D4F44450A002D2D2D2D2D0A005000
:100C80005543410A5041440A0000AEFD377A585A94
:100C9000000004E6D6B446020021011600000074EC
:100CA0002FE5A3E0026401125D003D8889C6543639
:100CB000C3174FE4E46B40F4A93F689AB5CE958220
:100CC000E6C21C2FE75BFE13CCAAF86565FE3FFF6A
:100CD000869D43BCF554F2EEEEE316095484BB6ADC
:100CE0008D0D2692589E01EBE7B4906ED887C3EB2A
:100CF0003352AE38218AFC255CB1B3FE1B49C9686A
:100D00007229C040BDC85BD6AFBAA6DCE7F85CDC90
:100D1000C7496009327A17B06C0B82B5753A571F14
:100D2000368309CBB110EBE55BD52B73F5F6B62610
:100D3000309630EE8422B3FDA54963C34310BA4F09
:100D4000DA7D2534A135C3F9EF75762C584741304B
:100D50004DDC738588289FE09523291DBA6FFA55CD
:100D6000EADDC2957FF35F64E530AC651FFED435E4
:100D70007844E4DDDA9CF375E63A0B6DB3D9A71736
:100D8000109E8E67D786155A05B17D9445EB08D61F
:100D9000F673E06BB036F33570D5629F6BBFE343FB
:100DA000F2D1EDA4FE96E3EDFD880F2D5F15EF3631
:100DB0004467C6E21E3E93E6EED1D9E50000009CF2
:100DC000D7D6632E7CDAD10001AE02E5040000F52F
:100DD000EE2B7CB1C467FB020000000004595AA945
:100DE00000AA00010001000100010001000100A8AB
:100DF0000000004B004E0000000153540055005607
:100E00000000005F0060006100570057005C005D5B
:100E1000005E003102000059005A005B00280028E3
:100E2000006200285D63006300620001000000C5ED
:100E30005CC95C00000153C25CC65CCA5C00005027
:100E40000052004F00C35CC35C500051004F0001D2
:100E500000000049004A004D00C45CC45C29000148
:100E6000004C00010029002223252628292A2C2DA8
:100E70002F3032333536383A3B3D3E4042434547CA
:100E8000494A4C4E5051535557595A5C5E60626402
:100E90006668696B6D6F71737577797B7D7F818310
:100EA0008587898A8C8E90929496989A9C9E9FA111
:100EB000A3A5A7A8AAACAEAFB1B3B4B6B8B9BBBC32
:100EC000BEBFC1C2C3C5C6C7C9CACBCCCDCED0D1A7
:100ED000D2D2D3D4D5D6D7D7D8D9D9DADADBDBDB9F
:100EE000DCDCDCDCDCDDDDDDDDDCDCDCDCDCDBDB40
:100EF000DBDADAD9D9D8D7D7D6D5D4D3D2D2D1D094
:100F0000CECDCCCBCAC9C7C6C5C3C2C1BFBEBCBB90
:100F1000B9B8B6B4B3B1AFAEACAAA8A7A5A3A19F08
:100F20009E9C9A98969492908E8C8A8987858381CC
:100F30007F7D7B79777573716F6D6B6968666462AD
:100F4000605E5C5A5957555351504E4C4A4947457B
:100F50004342403E3D3B3A3836353332302F2D2C1C
:100F60002A292826252322FFAA7F554000010101B6
:100F70000101010101010202020202020202020356
:100F80000303030303030304040404040404050526
:100F900005050506060606060707070707080808E9
:100FA00008090909090A0A0A0B0B0B0C0C0C0D0D98
:100FB0000D0E0E0E0F0F0F10101111111212131330
:100FC0001414151516161717181819191A1A1B1BA9
:100FD0001C1D1D1E1E1F2020212222232424252605
:100FE00026272829292A2B2C2D2D2E2F303132323D
:100FF000333435363738393A3B3C3D3E3F40414249
:10100000434445464748494A4C4D4E4F505153542E
:10101000555658595A5B5D5E5F61626465666869E2
:101020006B6C6D6F7072737577787A7B7D7E808262
:10103000838587888A8C8E8F91939596989A9C9EAB
:10104000A0A2A3A5A7A9ABADAFB1B3B5B7BABCBEBB
:10105000C0C2C4C6C9CBCDCFD1D4D6D8DBDDDFE288
:10106000E4E7E9EBEEF0F3F5F8FAFDFF000000002D
:101070000000000000000000000000000000000070
:101080000000000000000000000000000000000060
:101090007E0F00D4FFFFFFC70000007800000000B3
:1010A000000000002A2B28000000000000000000C3
:1010B0000000000000000029000000002C1E342069
:1010C000212224342627252E362D3738271E1F208F
:1010D0002122232425263333362E37381F040506D4
:1010E0000708090A0B0C0D0E0F1011121314151618
:1010F0001718191A1B1C1D2F3130232D3504050616
:101100000708090A0B0C0D0E0F10111213141516F7
:101110001718191A1B1C1D2F3130354C30300000A8
:1011200011241FBECFEFDAE0DEBFCDBF04B603FE51
:1011300027C08091F4049091F504A091F604B09139
:10114000F7048730904BA740B04BD1F41092F404D1
:101150001092F5041092F6041092F70414BE84B7AE
:10116000877F84BF0FB6F894A8958091600088614E
:1011700080936000109260000FBEE0E0F8E30995F4
:1011800024E0A0ECB1E001C01D92A43FB207E1F75A
:1011900011E0A0E0B1E0ECEBF7E602C005900D92A3
:1011A000A03CB107D9F70E94AF270C9488330C9468
:1011B00000009C01FB019A9581159F4118F5D9010A
:1011C000AA27B270832F8170B90166277470A901B4
:1011D0004427587034FF0CC08295807FAB2B09F0F8
:1011E0008062672B09F08064452B09F080680994C0
:1011F000AB2B09F08260672B09F08460452BB9F3B3
:101200008860F5CF08959091E90492FF06C0282FD9
:1012100028712830F9F4877F846093FF06C0282F57
:1012200028712831F1F4877E84612091EA0420FF3F
:1012300006C0382F38713830D9F4877F816021FF9C
:1012400006C0282F28712831D1F4877E816194FD52
:10125000877E0895282F24712430F9F68B7F8860CB
:10126000DCCF282F2471243101F78B7E8861DDCFFC
:10127000382F3171313019F78E7F8860E0CF282FF9
:101280002171213121F78E7E8861E1CFF894E82F1A
:10129000E295EF70F0E041A18F7021E030E0B901FC
:1012A00002C0660F771F8A95E2F7CB01962F9095C3
:1012B000942391A392A1892B82A3789408956F928D
:1012C0007F928F929F92AF92BF92CF92DF92EF92D6
:1012D000FF920F931F93CF93DF93B82EA62E890111
:1012E000E42FF0E0E459F04F611119C0E4918E2F22
:1012F0002E2FD80111962C931197EC9312968C9364
:10130000DF91CF911F910F91FF90EF90DF90CF90E1
:10131000BF90AF909F908F907F906F900895E62E32
:10132000F12C249186E0B89E60011124CFEFD0E02B
:10133000C601BE010E94F7318B2D90E0880F991FE6
:1013400035E5369FA001379F500D1124841B950B66
:10135000982F990F980FAE014E195F09249FD00165
:10136000259FB00D1124EB2FA99E50011124AB2C09
:10137000BB24AE014A195B09249F5001259FB00C84
:1013800011248B2D3E01691A71086E9C40016F9CDF
:10139000900C7E9C900C1124892C9924C819D90991
:1013A0002C9FA0012D9F500D112463307105D1F0A9
:1013B0009CEFC91693E0D90670F461307105B1F065
:1013C00062307105B9F0FFEFCF16D10408F091CF6C
:1013D0008B2FE52F8ECF6430710579F06630710563
:1013E000B9F387CFEB2D822F2B2F83CFE22F2B2D1D
:1013F0008B2F7FCF852FE22FF7CF822F252F79CF0D
:101400008091EE04982F9E7F29F4817082608093F2
:10141000EE0408958635E8F381708465F8CF089569
:10142000FA0181110994FB01FDCFE0917E04F09156
:101430007F04309721F00190F081E02D099480E045
:10144000089520917C0430917D042817390771F0AC
:1014500090937D0480937C04E0917E04F0917F045E
:10146000309721F00680F781E02D099408952091AE
:101470007A0430917B042817390771F090937B042C
:1014800080937A04E0917E04F0917F04309721F0FC
:101490000084F185E02D0994089580914304909192
:1014A0004204981301C008958F5F8770FACFE92F27
:1014B000EE0FEE0FE90FE80F8E2F877041E001C0AD
:1014C000440F8A95EAF7E695E695E69585E0E89F6C
:1014D000F0011124E65DFB4F30E020E070E0519117
:1014E000DF011197CB01022E02C0969587950A94D1
:1014F000E2F7817081958527842385278C932F5F60
:101500003F4F2530310559F70895E92FEE0FEE0FC3
:10151000E90FE80F9E2F9770E695E695E69585E032
:10152000E89FF0011124E65DFB4F50E040E080E0D1
:10153000219130E0092E02C0369527950A94E2F7F2
:1015400021703327042E01C0220F0A94EAF7822B60
:101550004F5F5F4F4530510559F70895A4ECB1E056
:10156000EFEF90E02D91821751F0EF3F19F4211128
:1015700001C0E92F9F5F9630A9F7EF3F09F4089566
:101580000E2E000CFF0BEE53FE4F82830895E4EC09
:10159000F1E09191891303C0DF0111971C9291E052
:1015A000EA3CF907B1F7089580913F048111109248
:1015B0003F0408958091F30490914104892B909108
:1015C0003E04892B8093C20190913F04992391F0AE
:1015D000892B8093C20120E084EC91E0FC013081F2
:1015E000019631112F5F31E08A3C9307B9F7211141
:1015F0000E94D40AE0917E04F0917F04309731F08C
:101600000280F381E02D82EC91E009940895882313
:1016100041F080959091F30489238093F3040C9416
:10162000DA0A0895882341F0809590914104892336
:10163000809341040C94DA0A0895882339F090913C
:10164000F304892B8093F3040C94DA0A0895882319
:1016500039F090914104892B809341040C94DA0A6B
:101660000895882309F452C0823871F40E94150A43
:1016700081FF4CC089E30E94AE0A0E94DA0A89E326
:101680000E94C70A0C94DA0A833859F40E94150A9A
:1016900080FF3CC083E50E94AE0A0E94DA0A83E51F
:1016A000EFCF843859F40E94150A82FF2FC087E4D7
:1016B0000E94AE0A0E94DA0A87E4E2CF9CEF980FFC
:1016C000913AF0F290E2980F983088F4877021E018
:1016D00030E0A90102C0440F551F8A95E2F7CA0104
:1016E00080959091F30489238093F304CBCF9BE5FD
:1016F000980F933020F490E080E00C94210A885AEF
:10170000873120F490E080E00C94370A089590E04F
:1017100080E00E94210A90E080E00E94370A109247
:10172000410410923E040C94DA0A60938204709390
:10173000830480938404909385040C94870B6093B6
:1017400086047093870480938804909389040C9492
:10175000870B0F931F93CF93DF9300D000D0CDB7AB
:10176000DEB741E050E060E070E004C0440F551F78
:10177000661F771F8A95D2F780918604909187041F
:10178000A0918804B09189048A019B01082B192B30
:101790002A2B3B2B09831A832B833C83C901B80175
:1017A0000F900F900F900F90DF91CF911F910F919D
:1017B0000C949F0B0F931F93CF93DF9300D000D017
:1017C000CDB7DEB741E050E060E070E004C0440F08
:1017D000551F661F771F8A95D2F7409550956095E3
:1017E00070958091860490918704A0918804B091AF
:1017F00089048A019B01082319232A233B23098397
:101800001A832B833C83C901B8010F900F900F906E
:101810000F90DF91CF911F910F910C949F0B90919E
:1018200040048095892380934004282F277071F409
:10183000282F082E000C330B9217130639F08595CC
:10184000859585950E94DA0B10924004089580E0FA
:101850000895CF93DF9300D000D0CDB7DEB78FB718
:10186000F8942091D5043091D6044091D70450913A
:10187000D80429833A834B835C838FBF69817A8143
:101880008B819C810F900F900F900F90DF91CF91E3
:10189000089587E797E7909301088093000888E10F
:1018A0009AE00FB6F894A895809360000FBE9093CD
:1018B0006000FFCF8091280408950895FC01CB01BA
:1018C0002091DC013091DD012617370790F0009759
:1018D00029F42091E8002E772093E80040E000975B
:1018E00051F4411108C08091E80082FF31C080E0CE
:1018F0000895C901F3CF20911F042223A9F12530B7
:10190000A9F12091E80023FD2DC02091E80022FDDF
:10191000EACF2091E80020FFE2CF3091F300209140
:10192000F200009719F02830310558F041E02830D6
:10193000310509F040E02091E8002E772093E8007F
:10194000CECF41914093F10001972F5F3F4FE9CFF8
:1019500080911F04882341F0853041F08091E80098
:1019600083FFC1CF81E0089582E0089583E0089568
:101970008091D60187FF13C08091E80082FF06C0E6
:101980008091E8008B778093E80004C080911F0469
:101990008111F2CF089580911F048823D9F380919B
:1019A000E80080FFF8CF8091E8008E77ECCF20919F
:1019B000E4003091E50095E6A9012091EC00822F2A
:1019C000817020FF06C08091E80080FF06C080E0A3
:1019D00008952091E80022FD1AC080911F048823F9
:1019E00089F0853089F08091EB0085FD0FC0209152
:1019F000E4003091E50042175307F9F29150E1F607
:101A000084E0089582E0089583E0089581E00895D8
:101A1000E8EDF0E080818E7F80831092E2001092EA
:101A2000DA001092E100A0EEB0E08C9181608C931E
:101A300080818F77808319BCA7EDB0E08C918E7F79
:101A40008C9380818F7E80831092D5010895EF92D0
:101A5000FF920F931F93CF937C018B010E94D70CB1
:101A6000C82F811117C08091E80085FD0BC08091BF
:101A7000E8008E778093E8000E94D70C882399F3C2
:101A8000C82F08C0F70181917F018093F1000150B8
:101A9000110949F78C2FCF911F910F91FF90EF9073
:101AA0000895CF93DF9300D000D0CDB7DEB78091FB
:101AB000860490918704A0918804B0918904AC01B8
:101AC000BD0146705527662777279C014630510592
:101AD0006105710591F4AD01286029833A834B8338
:101AE0005C8369817A818B819C810F900F900F902C
:101AF0000F90DF91CF910C949F0BAD01277FEDCF1D
:101B0000982F9093E900242F762F50E0891731F019
:101B10007091EC002091ED005091F00021FD06C085
:101B20009F5F973071F78093E90008953091EB0043
:101B30003E7F3093EB003091ED003D7F3093ED0020
:101B40003091EB0031603093EB007093EC00209308
:101B5000ED005093F0002091EE0027FDE1CF0895B5
:101B6000CF92DF92EF92FF920F931F93CF93DF9369
:101B7000C8EDD0E088818F7E8883E7EDF0E080813A
:101B80008160808384E082BF81E08093D501888179
:101B90008E7F888302EE10E0F80110821092DA0046
:101BA00081EEC82ED12CF601108288818F77888330
:101BB00088818068888388818F7D888319BC109292
:101BC0001F041092D40110921E041092D30190EEC3
:101BD000E92EF12CF70180818B7F808388818160E1
:101BE000888342E060E080E00E94800DF601808101
:101BF0008E7F8083F801808181608083808188600E
:101C00008083F70180818E7F8083888180618883D3
:101C1000DF91CF911F910F91FF90EF90DF90CF90C8
:101C200008958091EE0480FD0AC0E7EBF4E0118294
:101C300010821282339654E0EF3CF507C1F7549AB4
:101C40003BB13F7E2BB120614FB7F89487EB94E016
:101C5000FC010196508168E02BB9000000C057FFDD
:101C60003BB9550F000000C000C000C03BB900C028
:101C70006A9591F754E08F3C950751F74FBF8FE578
:101C800094E00197F1F700C0000008959091EE04F0
:101C900090FF0CC0E7EBF4E08183608342833396CE
:101CA00094E0EF3CF907C1F70C94110E0895CF931F
:101CB000DF9300D00F92CDB7DEB79091EE0490FF86
:101CC0000FC09E012F5F3F4F0E945F094B816981CA
:101CD0008A810F900F900F90DF91CF910C94460E58
:101CE0000F900F900F90DF91CF910895CF93DF93D6
:101CF000EC01EC81F0E0E959F14F4491EEEEF4E0B3
:101D0000628181810E94570E8C818F5F8C83DF916D
:101D1000CF910895CF93DF93EC01EEEEF4E0438191
:101D200062818C810E94570E8C818F5F8C83DF9142
:101D3000CF9108950F931F93CF93DF9300D00F920D
:101D4000CDB7DEB78C018091B40481110AC09E0129
:101D50002F5F3F4F4FEF6FEF0E945F098A818093A3
:101D6000B404F8016481613049F06230F1F080918F
:101D7000B40440E0662331F040E019C06091B4043F
:101D800040E080E00E94460EF801848190E00196D8
:101D900063E070E00E940B3284830F900F900F90ED
:101DA000DF91CF911F910F9108954091B40480E08D
:101DB00060E0E8CFEF92FF921F93CF93DF93EC01A7
:101DC00087EBE82E84E0F82E10E08C81970140919B
:101DD000F1046091F004810F0E945F09115E83E0BD
:101DE000E80EF11C183F89F70E94110E9A818C8130
:101DF00090FF08C08F5F8C83DF91CF911F91FF9080
:101E0000EF9008958150F7CFCF92DF92EF92FF923B
:101E10000F931F93CF93DF93FC018281DD24DA942B
:101E200080FD02C0DD24D394C7EBD4E010E000E0D5
:101E3000198218821A8294E0E92EF12CC12C80912B
:101E4000B6048C0D8930CCF18770082E000C990BEC
:101E50008017910791F48091F1048E9DA0018F9DD0
:101E6000500D112455954795559547959E016091C4
:101E7000F0048091EF040E945F09CD0CF1E0EF1AAD
:101E8000F108E9F60F5F1F4F23960830110581F620
:101E90000E94110E8091B60491E0D91212C08823DD
:101EA00099F081508093B604DF91CF911F910F91EB
:101EB000FF90EF90DF90CF90089587FFC6CF885FA7
:101EC000C4CF8F5F8770EECF87E0ECCF0F931F9367
:101ED000CF93DF93C7EBD4E0FE0111821082128210
:101EE000339684E0EF3CF807C1F710E000E0809102
:101EF000B504082E000C990B081719078CF1809176
:101F00001B01082E000C990B801791074CF19E01C4
:101F10004091F1046091F0048091EF040E945F0908
:101F20000F5F1F4F23960830110509F70E94110E0D
:101F300080911A019091B504980F9093B504209167
:101F40001B01280F20931B01121614F497301CF06C
:101F5000819580931A01DF91CF911F910F91089580
:101F6000198218821A82DCCFCF92DF92EF92FF9211
:101F70000F931F93CF93DF93CDB7DEB72E970FB696
:101F8000F894DEBF0FBECDBF8D879E87AD85BE8521
:101F900014961C91212F30E0D9010E9479339B01C6
:101FA000AC010E94443369837A838B839C83E0E293
:101FB000F0E0E11BF109A5E5B0E09B01AC010E9456
:101FC000443369877A878B879C879F01DF010E9452
:101FD0002C329B01AC010E944F336D837E838F8333
:101FE00098879B01AC0189819A81AB81BC81280FC4
:101FF000391F4A1F5B1F69857A858B859C850E94E6
:102000005733F22E422F50E099E29F1508F442C058
:10201000A3E02A9F9001112435952795122F109542
:1020200097EBC92E94E0D92E00E085E5E82EEF1855
:102030008E2D01FD8F2D9601412F6091F0040E949D
:102040005F090F5FB3E0CB0ED11C083089F70E9407
:10205000110EED85FE85948181E0992319F090326F
:1020600019F48FEF8093190180911901890FAD85C3
:10207000BE8514968C932E960FB6F894DEBF0FBED5
:10208000CDBFDF91CF911F910F91FF90EF90DF9027
:10209000CF90089585E590E0841B950B9C01220F5D
:1020A000331F280F391F37FFB7CF2F5F3F4FB4CFF4
:1020B000EF92FF920F931F93CF93DF93EC0107EB07
:1020C00014E0F12CE12C9C816091F0048091EF04EC
:1020D00024E0E216F104FCF49923F9F09801409110
:1020E000F1040E945F098FEFE81AF80A0D5F1F4F95
:1020F00028E0E216F10439F70E94110E8C8190E07D
:102100000196817099278C83DF91CF911F910F9158
:10211000FF90EF900895992309F3980140E0E1CFF3
:10212000CF93C82F882309F488C08238C1F40E9455
:10213000150A81FD82C089E30E94AE0A0E94DA0A74
:102140002FEF31EE84E0215030408040E1F700C0B5
:10215000000089E30E94C70ACF910C94DA0A833801
:10216000A1F40E94150A80FD68C083E50E94AE0AB2
:102170000E94DA0A9FEF21EE34E091502040304077
:10218000E1F700C0000083E5E5CF8438A1F40E94A8
:10219000150A82FD52C087E40E94AE0A0E94DA0A44
:1021A0008FEF91EE24E0815090402040E1F700C095
:1021B000000087E4CFCF8CEF8C0F813A70F4E4EC11
:1021C000F1E08AEC91E02191C21789F18E179F0707
:1021D000D1F78C2F0E94AE0ABFCF80E28C0F8830DF
:1021E00068F4C77021E030E001C0220FCA95EAF719
:1021F0008091F304822B8093F304AECF8BE58C0F98
:10220000833038F42C2F2452330BC901CF910C9416
:10221000210AC85AC73188F4EC2FF0E0EE0FFF1FF7
:10222000EF56FE4F80819181CF910C94370A8C2F0D
:102230000E94C70A0E94DA0ACCCFCF9108950F936B
:102240001F93CF93C82F10E000E0893311F400E50D
:1022500010E08C2F0E9490100115110531F48C2F85
:10226000CF911F910F910C94310B8FE99FE0019753
:10227000F1F700C0000001501109EECFDF92EF929C
:10228000FF920F931F93CF93DF93E82FF0E0E45674
:10229000FF4ED490282F26952695269530E0F901FB
:1022A000E457FF4E0491877010E0082E02C0159588
:1022B00007950A94E2F701701127F901E458FF4EDF
:1022C000E490F12C082E02C0F594E7940A94E2F70A
:1022D00091E0E922FF24F901E459FF4EC491D0E0D6
:1022E00002C0D595C7958A95E2F7C170DD27011523
:1022F000110519F081EE0E949010E114F10419F01B
:1023000086EE0E9490108D2D0E941F11EF2819F06B
:1023100086EE0E94310B012B19F081EE0E94310BE9
:10232000CD2B51F08CE2DF91CF911F910F91FF9057
:10233000EF90DF900C941F11DF91CF911F910F91BF
:10234000FF90EF90DF9008951F93CF93DF93EC0100
:102350001AE08881882309F440C08130D9F5998139
:102360008A81913029F422960E941F112196F1CF83
:10237000923021F422960E949010F8CF933021F4ED
:1023800022960E94310BF2CF943011F02196EECFBD
:10239000229620E030E0AE014F5F5F4F8053990BF3
:1023A0008A30910560F02115310501F38FE99FE036
:1023B0000197F1F700C0000021503109F4CF129FBE
:1023C000B001139F700D11249C01260F371F8981C6
:1023D000EA01E1CF0E943E11C9CFDF91CF911F9159
:1023E0000895CF93DF93D82FC92F81E08093E90020
:1023F0008FEF9091E800815095FD06C095ED9A957C
:10240000F1F700008111F5CF8091E80085FF16C03B
:1024100050E040E068E070E08D2F9C2F0E94270D77
:102420008091E8008E778093E80088E0ED2FFC2F04
:10243000A0E2B4E001900D928A95E1F7DF91CF918F
:102440000895CF93DF9300D00F92CDB7DEB7909170
:102450001F04943011F589836A837B839093E9008C
:102460008FEF9091E800815095FD06C095ED9A950B
:10247000F1F700008111F5CF8091E80085FF0DC0D4
:1024800050E040E063E070E0CE0101960E94270D2D
:102490008091E8008E778093E8000F900F900F9066
:1024A000DF91CF910895BC0183E00C942112BC010F
:1024B00084E00C9421120F931F93CF93DF93890133
:1024C000843048F5663038F5453028F521153C450F
:1024D00031F42091170130911801232BE1F0C42F22
:1024E000D0E0CC0FDD1F9AE0699FC00DD11D1124F3
:1024F0009CE3899FC00DD11D1124612FCE018696CA
:102500000E94F132602FCE018796DF91CF911F910B
:102510000F910C94F132DF91CF911F910F9108959B
:102520000F931F93CF93DF938901843028F56111B6
:1025300023C0423008F521153C4531F420911701A4
:1025400030911801232BC1F094E0899FE001112400
:1025500050E0440F551FC40FD51FCA5EDE4F612FD8
:10256000CE010E94F132602FCE010196DF91CF9112
:102570001F910F910C94F132DF91CF911F910F9128
:1025800008957F928F929F92AF92BF92CF92DF92E7
:10259000EF92FF920F931F93CF93DF93C090170199
:1025A000D090180181E090E090931801809317017A
:1025B0000FED1DE0F12CE12CC0E04701D0E015C08B
:1025C000F50125913491472D6D2F8C2F0E945B12C0
:1025D00022E0A20EB11C739435E07312F1CF85E0B6
:1025E000880E911CDF5FD63049F0C401880F991F17
:1025F0009C012151324F5901712CE2CFF8012591F4
:10260000349140E060E08C2F0E949012F8013296E5
:102610002591349141E060E08C2F0E9490120C5F74
:102620001F4FCF5F3EE1E30EF11CC43009F0C5CF70
:10263000D0921801C0921701DF91CF911F910F9195
:10264000FF90EF90DF90CF90BF90AF909F908F90D2
:102650007F900895CF93DF93C6E2D1E060E0CE0192
:102660000E94F1322196C11584E0D807B9F7DF91B5
:10267000CF9108950F931F93CF93DF93843030F55C
:10268000663020F5453010F5C42FD0E0CC0FDD1FAB
:102690002AE0629FC00DD11D11243CE3839FC00D31
:1026A000D11D1124CE0186960E94DD32082F10E044
:1026B000102F0027CE0187960E94DD329801282B2B
:1026C000C901DF91CF911F910F91089590E080E0B3
:1026D000F8CF462F672F2091800430918104232B5F
:1026E00089F47E3F39F44E3F69F480918A049091D9
:1026F0008B040895843030F4763020F4453010F4A3
:102700000C943A1390E080E00895CF93DF930E94F9
:102710006913EC01803E910509F45EC048F58133F0
:10272000910509F4A1C088F48932910509F495C096
:102730008A9709F4A0C0C130D10529F1CE010497D0
:10274000813A910508F054C01EC089339105E9F122
:1027500082389105D1F1C59709F478C0C83AD105FE
:1027600008F090C0C53AD10530F3A497D0640BC0EF
:10277000843E910509F44FC050F4823E9105D9F191
:10278000833E9105E9F1CE01DF91CF910895863E18
:10279000910509F44BC0873E910509F44CC08115A1
:1027A00023E5920708F08BC0811532E5930708F006
:1027B000FDC0C11580E5D80708F077C0C11520E439
:1027C000D20760F2DF70D06ADECF8091E9048370B7
:1027D000D1F2C0EED0E0D7CF8091E90480FD11C1E5
:1027E0009091EA0490FFCFCFC3EED0E084FFCBCF2F
:1027F000D0E0C0E0C8CF8091E90482FDF5CFC3CF1F
:102800008091E90482FD00C19091EA0490FDE1CF3E
:1028100084FFB9CFEDCF8091EA0481FFB4CF8091DE
:10282000E904C7EED0E084FDE3CFADCF8091E904A9
:1028300083FDF7CFA8CF8091E90483FDE8C0909194
:10284000EA0491FFE5CFC4EED0E09DCF8091E9048A
:1028500085FF99CFC9E2D0E096CF8091E90485FF4A
:1028600092CFC5E3D0E08FCF8091E90486FF8BCF74
:10287000CAE2D0E088CF8091E90486FF84CFC1E32B
:10288000D0E081CFCF3BD10508F468C0C83ED10568
:1028900028F4C03ED10508F4ABCF75CFCE019A9590
:1028A00081159F4108F0A4CF6ECFC11581E5D807EF
:1028B00008F45FC0DC2FCC27C16FD06A64CF8115CC
:1028C00029E59207A0F5811538E5930708F086C041
:1028D000C11585E5D807C8F4C11524E5D20708F06D
:1028E00078C09E012370332781E090E002C0880FFA
:1028F000991F2A95E2F7C695C69530E2C39FE0017D
:102900001124C82BD92BDA683ECFCE0195558F3FC5
:10291000910511F008F06CCF8C2F0E940309C82F8D
:10292000D0E0DC2FCC27CC27DF71D0622CCFC115B3
:102930008AE5D80708F457C0CE0190568115904219
:1029400008F056CF8D2F8F710E94030990E0982FC9
:10295000882788279F718C2BEC01E7CFC85AD0E0DD
:10296000CC0FDD1FCF56DE4F0990D881C02DD46427
:102970000ACF9E0174E0369527957A95E1F723708A
:102980008C2F86958695837030E2839FC001112439
:10299000922BC37021E030E002C0220F331FCA9592
:1029A000E2F7822B932BEC01DC68EDCE9C012370C7
:1029B000332781E090E002C0880F991F2A95E2F743
:1029C000C695C69520E2C29FE0011124C82BD92BE1
:1029D000EBCFDC2FCC27C46FD06AD5CED82FCC2735
:1029E000C06FD06AD0CE8C2F8F700E94030934E064
:1029F000D695C7953A95E1F7CF709C2FEC01D06939
:102A0000C2CEC9E3D0E0BFCEC2EED0E0BCCEC6EEAF
:102A1000D0E0B9CEBF92CF92DF92EF92FF920F93A8
:102A20001F93CF93DF938C01C0908604D0908704CE
:102A3000E0908804F090890480918204909183044E
:102A4000A0918404B0918504C82AD92AEA2AFB2AD5
:102A5000CFE1D0E0BC2ED701C6010C2E04C0B69544
:102A6000A795979587950A94D2F780FD0EC0219778
:102A700088F7B12C8B2DDF91CF911F910F91FF9093
:102A8000EF90DF90CF90BF900895B8018C2F0E94F7
:102A90008513019761F3EECF0F931F93CF93FC0142
:102AA000828100811181882389F0662379F0C80131
:102AB0000E940A15C82F682FC8010E94570AB80142
:102AC0008C2FCF911F910F910C946913C8010E9414
:102AD000850AC82FF4CFCF93DF93D82FC92F0E9438
:102AE0000A156D2F7C2FDF91CF910C9485130E94D6
:102AF0006B15282F892F8F70392F32953F70903C9E
:102B000080F43A30B0F4343020F4323090F480E085
:102B100008953630E1F781E0283E88F0213FB9F78B
:102B20000EC03C3011F03F3091F786958695869522
:102B3000089581E0203F39F018F4283E40F70895C9
:102B4000243F29F7FCCF08950F931F93CF93DF9372
:102B5000843000F561111EC024E0829FE001112441
:102B600050E0440F551FC40FD51FCA5EDE4FCE0183
:102B70000E94DD32082F10E0102F0027CE010196B1
:102B80000E94DD329801282BC901DF91CF911F915E
:102B90000F91089590E080E0F8CFCF9384E090E02B
:102BA0000E94DD32C82F81E290E00E94DD32982F32
:102BB0008C2FCF9108950F931F93CF93DF938B01A9
:102BC000D82FC92F0E94000AA8016D2F7C2F88E002
:102BD00090E0DF91CF911F910F910C940333EEEEB3
:102BE000F4E085E0808311828FEF828383831482F7
:102BF00065E070E08FEF9FEF0C94DB15CF93DF93D0
:102C000000D000D0CDB7DEB78091F204833018F445
:102C10008F5F8093F2048091EE049091EF04A09175
:102C2000F004B091F10489839A83AB83BC83BC0127
:102C3000CD010F900F900F900F90DF91CF910C94DA
:102C4000DB15CF93DF9300D000D0CDB7DEB78091F6
:102C5000F204882319F081508093F2048091EE04ED
:102C60009091EF04A091F004B091F10489839A83CC
:102C7000AB83BC83BC01CD010F900F900F900F90E0
:102C8000DF91CF910C94DB157F928F929F92AF9240
:102C9000BF92CF92DF92EF92FF920F931F93CF9349
:102CA000DF9300D000D000D00F92CDB7DEB7182F41
:102CB000F62E042FE22E9091EE0490FF81C0E92FB2
:102CC000E695AE2FB0E0A55ABE4F8C918093EC04F0
:102CD0009E7F9230B9F59E012F5F3F4F812F0E945A
:102CE0005F094B8169818A810E94460E1093EF042F
:102CF000F092F0040093F104EE2009F461C0809199
:102D0000EE049091EF04A091F004B091F1048C8353
:102D10009D83AE83BF83BC01CD0127960FB6F89487
:102D2000DEBF0FBECDBFDF91CF911F910F91FF90FE
:102D3000EF90DF90CF90BF90AF909F908F907F905B
:102D40000C94DB15823019F40091F104CFCF86305A
:102D500019F41091EF04CACF8930D9F3893131F6D3
:102D6000E9512E2F2170722EE695F0E0E959F04FCF
:102D700085909490992437EBC32E34E0D32EB12C58
:102D8000A12CC50123E0969587952A95E1F771104E
:102D900013C0810F9601402F6F2D0E945F09A80C70
:102DA000B91CB3E0CB0ED11C2FECC21624E0D20626
:102DB00041F70E94110E9ACFA12FA81B8A2FEACFAC
:102DC00027960FB6F894DEBF0FBECDBFDF91CF912F
:102DD0001F910F91FF90EF90DF90CF90BF90AF9039
:102DE0009F908F907F900895EEEEF4E0818121E036
:102DF00043816281885F0C944416EEEEF4E0818199
:102E000021E04381628188500C944416EEEEF4E098
:102E1000628121E1620F08F46FEF21E0438181813B
:102E20000C944416EEEEF4E0628121E1621B08F49A
:102E300060E021E0438181810C944416EEEEF4E0E1
:102E4000438121E1420F08F44FEF21E0628181814B
:102E50000C944416EEEEF4E0438121E1421B08F4A9
:102E600040E021E0628181810C9444164F925F9290
:102E70006F927F928F929F92AF92BF92CF92DF928A
:102E8000EF92FF920F931F93CF93DF93FC01628029
:102E9000448081E08483E7E6FEE07490E6EEFEE0A5
:102EA000E491CCE8D4E097EBE92E94E0F92E24EB02
:102EB000C22E24E0D22E32E0A32EBB24B394882469
:102EC0008A94912C55245A94E7190E2F10E082E031
:102ED000861530F08091EF0488838091F004898317
:102EE000411021C01B821A8297014A816981888121
:102EF0000E945F09259683E0E80EF11CCC16DD06E2
:102F000031F7DF91CF911F910F91FF90EF90DF90FC
:102F1000CF90BF90AF909F908F907F906F905F9079
:102F20004F900C94110E8B818823E9F081508B8394
:102F3000859DC00111246C8170E00E94F731FB0176
:102F4000FF27E959F14F8491E82FE719E59DC0016A
:102F50001124B8010E94F7318091F104689FB001FB
:102F600011247A83C1CF0E94A332AC019091F10465
:102F7000969591589A9D90019B9D300D1124232F79
:102F80003327421753070CF0AFCF82E0861588F441
:102F90000E94A332B4010E940B3288830E94A332A4
:102FA0002091F0042695622F70E00E940B32280FCA
:102FB00029831A828091F104893C20F088EC8C836B
:102FC0008B8392CF8431D8F784E1F9CF1092F30448
:102FD000E4ECF1E086E0DF011D928A95E9F70C94BC
:102FE000870B1F93CF93DF93CDB7DEB7AA970FB6AA
:102FF000F894DEBF0FBECDBF86ED91E0FC010196D7
:103000002091F100208321E08E3D9207B9F7809155
:10301000D701893009F456C0C8F4823009F4B2C02F
:10302000833009F481C0813071F18091E80083FF21
:103030008EC28091D6019091D7019A3008F087C254
:10304000E92FF0E0E657FC4C0C941F328A3009F46B
:1030500088C08B3051F78091D601813231F7809151
:10306000DA019091DB01892B01F78091E800877FDD
:103070008093E8000E94B80C8091D80180931601DB
:103080000E94E617D2CF8091D601813A71F68091E5
:10309000E800877F8093E8008091DA019091DB015E
:1030A000892B61F468E080E294E070E00E945E0C9D
:1030B0008091E8008B778093E800B7CF60E090E0E4
:1030C00080E0F3CF8091D601813209F0AECF8091BC
:1030D000DA019091DB018D7F892B09F0A6CF8091D9
:1030E000E800877F8093E8008091E80082FF17C0A6
:1030F0009091F3008091F200029729F48091F10001
:103100008B7F813021F48091F1008093280480919D
:10311000E8008B778093E8000E94B80C86CF8091FE
:103120001F048111E1CF81CF8091D601813A09F04E
:103130007CCF8091DA019091DB01892B09F075CF6A
:103140008091E800877F8093E8008091E80080FF0D
:10315000FCCF809116018093F1008091E8008E777A
:10316000D9CF8091D601813209F05FCF8091E800FC
:10317000877F8093E8000E94B80C8091D9018093EA
:10318000D20153CF8091D601813A09F04ECF809180
:10319000E800877F8093E8008091E80080FFFCCF03
:1031A0008091D201D8CF803899F0823809F0CFC110
:1031B0008091DA018F70873008F0C9C18093E900EF
:1031C0008091EB0085FB882780F91092E90006C00A
:1031D0008091D30190911E04911182609091E8003A
:1031E000977F9093E8008093F1001092F100809116
:1031F000E8008E77A8C1882309F496C1823009F0CF
:10320000A6C18091D801811199C18091DA018F7096
:103210002FEF280F263008F09AC18093E900209103
:10322000EB0020FF8BC1933031F48091EB00806282
:103230008093EB0083C19091EB0090619093EB0041
:1032400021E030E001C0220F8A95EAF72093EA00DE
:103250001092EA008091EB008860EACF811177C17B
:103260001091D8011F778091E3008078812B8093A3
:10327000E3008091E800877F8093E8000E94B80C0B
:103280008091E80080FFFCCF8091E300806880930C
:10329000E30082E0111183E080931F0458C180583D
:1032A000823008F054C14091D8015091D9014C3D71
:1032B00083E0580799F583E08A838AE289834FB7D0
:1032C000F894DE01139620E03EE051E2E32FF0E0B7
:1032D00050935700849120FF03C082958F703F5F09
:1032E0008F708A30C8F0895C90E08D939D932F5F3A
:1032F000243161F74FBF8091E800877F8093E80019
:103300006AE270E0CE0101960E945E0C8091E800B6
:103310008B778093E8001BC1805DE6CF8091DA0156
:103320009091DB01252F33272330310509F44AC062
:1033300078F52130310509F486C08BE590E0E2E8AC
:10334000F6E02230310509F002C12091E800277F24
:103350002093E8002091DC013091DD018217930772
:1033600008F49C0140E02115310509F071C04111BC
:103370006FC08091E80082FDC9CF80911F0488232F
:1033800029F2853019F28091E80083FFF2CFBECF99
:103390002132310509F448C02232310509F0D7C085
:1033A0008330910508F0D3C0FC01EE0FFF1FE95CEC
:1033B000FE4F0190F081E02D8C5C9E4FDC018C91E2
:1033C00090E026C0CA019927423031F1833091053F
:1033D00068F40097B1F0019709F0B9C0E9E1F7E0AE
:1033E000E4918E2F90E0E9E1F7E012C0039709F035
:1033F000AEC0EFEEF6E0E4918E2F90E0EFEEF6E057
:1034000007C0E3E3F7E0E4918E2F90E0E3E3F7E019
:10341000009709F49CC099CFEDE0F7E0E4918E2F7E
:1034200090E0EDE0F7E0F4CF8330910508F08FC035
:10343000880F991FFC01E35CFE4F0190F081E02DA5
:1034400089E090E082CF82E190E0EDEDF6E07DCF83
:1034500080911F04882309F459CF853009F456CF91
:103460008091E80083FD52CF8091E80082FD81CFFA
:103470008091E80080FF77CF9091F3008091F20077
:103480002115310519F08830910550F041E0089779
:1034900009F040E08091E8008E778093E80063CFE8
:1034A00044914093F1003196215031090196E8CFC3
:1034B000803809F04CC08091E800877F8093E80055
:1034C0008091D4018093F10092CE811140C010917F
:1034D000D8011230E0F58091E800877F8093E80002
:1034E0001093D4010E94B80C112311F084E005C0A0
:1034F0008091E30087FDFACF81E080931F0442E0D2
:1035000061EC81E00E94800D42E261EC84E00E9467
:10351000800D42E261EC82E00E94800D42E260ECAC
:1035200083E00E94800D13C08091D801813079F42E
:1035300081E0933009F080E080931E041092E9004E
:103540008091E800877F8093E8000E94B80C80910A
:10355000E80083FF0AC08091E800877F8093E8003D
:103560008091EB0080628093EB00AA960FB6F894EE
:10357000DEBF0FBECDBFDF91CF911F9108956BEEDF
:103580007EEF90E080E00E940F3360E082E090E008
:103590000E94F13260E083E090E00E94F1321092EC
:1035A000820410928304109284041092850460E0D7
:1035B00084E090E00E94F13260E081E290E00E94BD
:1035C000F13260E085E090E00E94F13260E086E058
:1035D00090E00E94F1326FEF87E090E00E94F132BC
:1035E00040E050E0BA0188E090E00E94033360E0E0
:1035F0008DE090E00E94F13240E050E0BA0188E1B5
:1036000090E00E94033360E087E190E00E94F13295
:1036100040E050E0BA018CE190E00E94033360E0AA
:1036200080E290E00E94F13240E050E0BA0188E18F
:1036300090E00E94033340E050E0BA018FE090E058
:103640000E94033340E050E0BA0183E190E00C9423
:103650000333CF92DF92EF92FF920F931F93CF939A
:10366000DF936C017B0164E670E088E70E94FE3026
:10367000EC018601EC0CFD1C97FD0EC0F801849155
:1036800064E670E00E945A31EC01892B29F40F5F47
:103690001F4FE016F10691F70E94E731CE01DF914E
:1036A000CF911F910F91FF90EF90DF90CF900895F1
:1036B000CF93DF9300D000D0CDB7DEB78091130455
:1036C0008823F9F00E94290CDC01CB01805A954136
:1036D000AF4FBF4F80930E0490930F04A09310043C
:1036E000B09311048091120481110BC062E070E06C
:1036F00080E491E00E94291B892B19F481E08093DA
:1037000012040F900F900F900F90DF91CF910895BA
:10371000CF93DF93682F8091E7019091E8016A30A1
:10372000B9F42091E9018A509240622F70E00E9422
:10373000F731281B822F66E00E94EB31C82FC15061
:1037400018F4DF91CF91089580E20E94881BF7CF93
:103750006D30F9F49C012A5032404091E901642F08
:1037600070E0C9010E94F731481B842FA901480F5E
:10377000511D4115524018F080E030E020E0820FEA
:10378000932F911D865F9D4F9093E8018093E701F1
:10379000D8CF26E0FC01ACECB1E001900D922A9567
:1037A000E1F7603E08F458C026E0FC0111922A952A
:1037B000E9F7C091E701D091E80146E050E0BE0191
:1037C0008CEC91E00E94C9329E012A503240892B34
:1037D00041F1C90145E0969587954A95E1F741E0A9
:1037E00050E0BA0102C0660F771F8A95E2F7CB015D
:1037F00060910C0470910D04862B972BB9016B5FBF
:103800007F4FE5E076956795EA95E1F702C0440FB2
:10381000551F6A95E2F7842B952B90930D048093A6
:103820000C042A5F3F4F4091E901642F70E0C90109
:103830000E94F731481B463010F4240F311D21152A
:1038400072E0370710F030E020E0265F3D4F309304
:10385000E8012093E70175CFF6E06F9FB0011124D6
:103860006E5B7E4F46E050E00E94B332A2CFCF9312
:10387000DF93EC01FE018491811103C0DF91CF91B0
:1038800008950E94881B2196F5CF1F921FB61F92A4
:1038900011248F939F93AF93BF938091290481113B
:1038A00013C08091D5049091D604A091D704B09113
:1038B000D8044196A11DB11D8093D5049093D604E0
:1038C000A093D704B093D804BF91AF919F918F91EB
:1038D0001F901FBE1F9018952FB7F8948091D504A4
:1038E0009091D604A091D704B091D8042FBF089529
:1038F000BF92CF92DF92EF92FF920F931F93CF93DD
:10390000DF9386E8E82E81E0F82EC2EED4E0C12CE9
:10391000D12C01E010E0F70181917F01F894E82FAC
:10392000E295EF70F0E021A18F70A80102C0440F72
:10393000551F8A95E2F7CA01922F982B91A392A165
:103940008095892382A3789400C0ECE8F1E030E010
:1039500020E0B12C4191A42FA295AF70A05EB0E001
:103960008C9190E04F7002C0959587954A95E2F74B
:1039700080FD4DC0802F022E01C0880F0A94EAF707
:10398000B82A2F5F3F4F2530310521F7F7013197D6
:1039900080810E94460955E0C51619F080EA8A9593
:1039A000F1F78991B816A9F1FE013197B08281E053
:1039B000D82AC394E6E0CE12AECFDD2061F181E0DB
:1039C0008093DB040E946C1C9093DA048093D904EA
:1039D0002091D9043091DA044FB7F8948091D5043E
:1039E0009091D604A091D704B091D8044FBF821B08
:1039F000930B0697A0F086E0E2EEF4E0ACEDB4E0C5
:103A000001900D928A95E1F71092DB0408C080E0E6
:103A1000B7CF80E0CDCF8091DB048111D9CF8D2D40
:103A2000DF91CF911F910F91FF90EF90DF90CF909A
:103A3000BF900895CF93DF9300D000D0CDB7DEB70D
:103A40009091EE0490FF4CC08823E1F18B32E0F5B9
:103A50008F77880F9091EE049170892B8093EE04FC
:103A6000662381F08091EE049091EF04A091F00420
:103A7000B091F10489839A83AB83BC83BC01CD01EF
:103A80000E94DB156091EE04669570E04BE050E01B
:103A90008CE191E00E94BC32892BC1F01092ED04C0
:103AA00081E08093D20420E04091F1046091F00421
:103AB0008091EF040F900F900F900F90DF91CF91B6
:103AC0000C94441681E0C5CF8AE2C3CF81E0809395
:103AD000ED040E946C1C9093D0048093CF04E0CF3F
:103AE0000F900F900F900F90DF91CF9108958091DC
:103AF000EE0486958F5F8B3208F081E061E00C94D4
:103B00001A1D9091EE0496958FEF890F913009F46C
:103B10008AE261E00C941A1D9091EE0490FF07C0B8
:103B20009695981720F0961710F40C94771D61E085
:103B30000C941A1DFF920F931F93CF93DF93C62F00
:103B4000D42FF22E8823A9F06093E8040E946C1C05
:103B50009093CB018093CA01C77081E001C0880FA8
:103B6000CA95EAF7DF91CF911F910F91FF900C94C6
:103B70001D0B8091E80468133FC02091CA01309169
:103B8000CB015FB7F8948091D5049091D604A091B1
:103B9000D704B091D8045FBF821B930B883C91057A
:103BA00058F510E2140F6417A1F0C77001E0802FE0
:103BB00001C0880FCA95EAF70E94070B183048F435
:103BC0008D2F877001C0000F8A95EAF7802F0E9421
:103BD0001D0B8F2D0E941F111830A8F44D2F477018
:103BE00081E001C0880F4A95EAF7DF91CF911F91DC
:103BF0000F91FF900C94070BC77081E001C0880FF4
:103C0000CA95EAF7F2CFDF91CF911F910F91FF9004
:103C100008959F92AF92BF92CF92DF92EF92FF9260
:103C20000F931F93CF93DF93CDB7DEB728970FB6CF
:103C3000F894DEBF0FBECDBF7C016B01DB01129695
:103C40001C91112309F4C4C282519F45409708F08A
:103C50008DC28FEF93E00E94DD32BEEEEB0E06E2E6
:103C600011E0882371F010E082C00115E4E01E0726
:103C7000D1F3C8010E94DD32811101C0EA940F5FC7
:103C80001F4FE110F2CF8091270190912801A09160
:103C90002901B0912A0189839A83AB83BC83BB2419
:103CA000BA947801FFEFEF1AFF0AC8010E94DD32D3
:103CB00089831A828823B9F2813009F047C06801EC
:103CC00022E0C20ED11CC7010E94DD32E82E8A8399
:103CD000882349F2C6010E94DD32F82E8FEF8E0D47
:103CE000833068F4680143E0C40ED11CFB82FF20DE
:103CF00021F0CE0101960E94A4118601D2CF54E09A
:103D0000E512FBCF680184E0C80ED11CC801039600
:103D10000E94DD32FF2009F4A6CF882309F4A3CF47
:103D20008150990BB89E9001B99E300D1124AF2D92
:103D3000A150BB0BCD01820F931F0197F0F2EFE969
:103D4000FFE03197F1F700C00000F7CFCE010196F8
:103D50000E94A4116701D1CF81E00E94A90B0E94AB
:103D6000510D81CF81E00E94DA0B0E94510D812F0D
:103D700028960FB6F894DEBF0FBECDBFDF91CF916E
:103D80001F910F91FF90EF90DF90CF90BF90AF9079
:103D90009F90089582E0E1CF82E0E5CF823041F448
:103DA00085010E5F1F4FF80184910E9490100BC295
:103DB000833041F485010E5F1F4FF80184910E940A
:103DC000310B01C2843009F0FEC185010E5F1F4F27
:103DD000F801249180E090E0F80131962053330BF4
:103DE0002A30310558F0009709F4EDC1AFE9BFE082
:103DF0001197F1F700C000000197F5CF989EA00140
:103E0000999E500D1124C901840F951F24918F0193
:103E1000E3CF0E943E118501D6C185EFE8168CE5FF
:103E2000F806E9F027E245EE66EE96EFE9169CE526
:103E3000F90649F027E245EE64EEA4EFEA16ACE598
:103E4000FA0609F0EFC1812F0E949A1D0CCF27E2DC
:103E500045EE65EEF8CF26E241EE60EEF4CF26E2C5
:103E600041EE62EEF0CF28E241E0F3CFC7018A5F76
:103E70009C45099708F4E9C186E1E8168CE5F80647
:103E800009F0C7C08091F304112309F4B8C08A7AFD
:103E900091E009F490E09093EB048111AEC089E2C7
:103EA0000E94AE0A0E94DA0ADECEF701E350FC451A
:103EB0008091E9048160E331F105B8F4EC56FC4CE3
:103EC0000C941F32C7018A5F9C45099708F0CFC147
:103ED000F701EB5FFC45E830F10590F4E955FC4C47
:103EE0000C941F328091E90482608093E904BFC181
:103EF0008091E9048460F9CF8091E9048860F5CF6E
:103F00008091EA0481608093EA04B1C18091EA045F
:103F10008260F9CF8091E9048061E7CF8091E90464
:103F20008062E3CF8091E9048064DFCF0E94E617CE
:103F30008091E9048068D9CF8091E9048C60D5CF65
:103F40008091EA048360DFCF8091E9048E7FCDCF3A
:103F50008091E9048D7FC9CF8091E9048B7FC5CF23
:103F60008091E904877FC1CF8091EA048E7FCBCF17
:103F70008091EA048D7FC7CF8091E9048F7EB5CF11
:103F80008091E9048F7DB1CF8091E9048F7BADCF23
:103F90000E94E6178091E9048F77A7CF8091E9040A
:103FA000837FA3CF8091EA048C7FADCF8091E90419
:103FB00082FB992790F921E0922790FB82F990FBF0
:103FC00083F993CF8091EA04982F909591708E7F1A
:103FD000892B90FB81F997CF0E94E6179091E90415
:103FE000892F97FB87F9805880CF61E08EE090E0C1
:103FF0000E94F1323CC160E0F9CF85E351CF80915E
:10400000EB04811104C089E20E94C70A4BCF85E30B
:10401000FBCF112309F4A8C08091F3048272F70149
:10402000E25CFC45E431F10508F082C0E155FC4C4E
:104030000C941F328091EE0480FF21C08E7F80930C
:10404000EE048091EE049091EF04A091F004B09101
:10405000F1048D839E83AF83B887BC01CD010E949C
:10406000DB151092ED049FEFA0E7B2E09150A04065
:10407000B040E1F700C000000E94110EF4CD816055
:104080008093EE0461E086950E941A1DECCD41E814
:104090005DE167E77DE10E94100AE5CD47E75DE15C
:1040A00061E87DE1F8CF4DEF56E164EF76E1F3CFC3
:1040B00044EF56E16DEF76E1EECF42E157E166E085
:1040C00077E1E9CF46E057E162E177E1E4CF4AE208
:1040D00057E16EE177E1DFCF4EE157E16AE277E148
:1040E000DACF41E256E16EEF75E1D5CF4EEF55E103
:1040F00061E276E1D0CF61E081E0C6CF65E082E0A9
:104100000E948C1DB0CD68E086E0FACF6EE089E0B9
:10411000F7CF64E18FE0F4CF67E185E1F1CF61E0B3
:1041200088E1B2CF62E289E1EBCF61E083E2ACCF1C
:104130001123D1F0E114ECE5FE0649F0FEEDEF1697
:10414000FCE5FF0609F013CE0E94BF1A8CCD0E9439
:10415000E6172FEF44E35CE0215040405040E1F788
:1041600000C000000E94490C11E001CE80E1E81679
:104170008FE5F80609F4F0CD91E1E9169FE5F9061F
:1041800009F408CEF8E2EF16FDE5FF0671F58CE1C3
:10419000A82E81E1B82E9AE0992EF501849188230A
:1041A00009F440C0813009F034CE85010F5F1F4F04
:1041B000F8018491813009F0F1CD0F5F1F4FF801B4
:1041C00084910E941F115801BFEFAB1ABB0AE5CFC3
:1041D0008031AFE59A0709F4C5CD8131BFE59B0772
:1041E00009F4DACD88329D45E9F0E3EFEE16ECE50F
:1041F000FE0609F430CE08F010CE28EDE2162CE5CC
:10420000F20609F424CE49EDE4164CE5F40609F46F
:104210002ACE26E241EE61EE57EDE5165CE5F506A5
:1042200009F411CEF6011281112309F425CE109262
:10423000E804F6E1EF16FCE5FF0608F017CE22E0F1
:10424000E2162CE5F20608F4E7CE0E94CD15909315
:10425000EA048093E90446E1E4164CE5F40608F02C
:1042600031CE52E0E5165CE5F50608F01ECE609111
:10427000E9041091EA0484E090E00E94F132612F99
:1042800081E290E00E94F1320E94E617ECCC0F939D
:104290001F93CF93DF9300D000D000D0CDB7DEB70F
:1042A0008C0190938B0480938A041E828EEF898305
:1042B0008A8381E08B830E946C1C81609D838C8348
:1042C000011580E21807F0F5C801805E9109089792
:1042D00028F067E27BE00115110511F46DE17BE048
:1042E000C8010E94D908802F0E9490108FE39CE99A
:1042F0000197F1F700C000000E946C1C81609D8353
:104300008C831B82011590E2190718F5802F0E94FB
:10431000310BC801805E9109089728F062E17BE0CB
:104320000115110511F467E07BE0C80126960FB670
:10433000F894DEBF0FBECDBFDF91CF911F910F91DB
:104340000C94D908BE016F5F7F4FC8010E94091EFF
:10435000CDCFBE016F5F7F4FC8010E94091E269618
:104360000FB6F894DEBF0FBECDBFDF91CF911F9186
:104370000F910895CF92DF92EF92FF920F931F93C8
:10438000CF93DF93182F062FC0908604D090870418
:10439000E0908804F09089048091820490918304D5
:1043A000A0918404B0918504C82AD92AEA2AFB2A5C
:1043B000CFE1D0E0D701C6010C2E04C0B695A79579
:1043C000979587950A94D2F780FF12C0402F612FEE
:1043D0008C2F0E94A4158130910551F0DF91CF916F
:1043E0001F910F91FF90EF90DF90CF900C94472199
:1043F000219700F7402F612F80E00E94A415EECF97
:104400008F929F92AF92BF92CF92DF92EF92FF92E4
:104410000F931F93CF93DF9300D000D00F92CDB7AF
:10442000DEB78C01FC019081818123813481232BB3
:1044300021F089238F3F09F0FEC20F900F900F905B
:104440000F900F90DF91CF911F910F91FF90EF9000
:10445000DF90CF90BF90AF909F908F900895F8011C
:104460008281E080F180882309F461C0C7010E9445
:104470000A158983682FC7010E94570AB7018981ED
:104480000E9485138D839983F801F280E580E29480
:104490005FE0E522809140048770A1F0CF2CFF20DF
:1044A00091F0892F807F803421F08D81805E88306B
:1044B00048F082E00E940F0C809140048770CC2469
:1044C000C3948111C12CD980D2944FE0D422F8E05A
:1044D000DF1609F41DC1FD1508F465C033E0832E15
:1044E0008D1450F18981807F29812F70298331E0DB
:1044F0003D1508F06BC0803229F08980829490EFDE
:10450000892289829D80992009F4A6C0292D213015
:1045100009F4C3C0FF2009F4CDC0EE2009F4C3C0E4
:10452000F801858180FF6DC08F708583BCC0C70195
:104530000E94850A8983A2CF44E0D41609F4CCC036
:10454000ED2DE850FF0B349710F40E94150ACC2093
:10455000A9F08091400480FD11C0F8011282859578
:10456000859585950E94A90BC8010E940022809123
:1045700040048595859585950E94DA0B60E0C80119
:104580000F900F900F900F900F90DF91CF911F9190
:104590000F91FF90EF90DF90CF90BF90AF909F90E2
:1045A0008F900C944C1559E0D51609F4B5C186E0EE
:1045B0008D0D8F70823020F68D81823F09F0BDC154
:1045C00089818F71FF2009F400C2B4C1882329F0CA
:1045D0008980829420EF82228982FF20E9F09980ED
:1045E000992079F08D81805E883018F0AD80A1101F
:1045F0000CC08091F304B9808B298093F3040E944E
:10460000DA0A8D810E9490109BCF809141048980AD
:10461000882980934104F3CF8D810E94310B9980CA
:10462000992009F48DCF909499828D81805E883095
:1046300018F0AD80A11009C08091F304B9808B21DE
:104640008093F3040E94DA0A7BCF80914104298190
:10465000822380934104F6CFFF2091F090913F0494
:104660008981892BE11003C00E941D0B69CF31E0C5
:10467000E312FACF891709F463CF80933F0460CF28
:10468000E11006C00E94D40A89810E94070B58CF0E
:1046900041E0E41609F454CFF5CFFF2031F055E0A6
:1046A0005E1508F44DCF8981DFCF84E08E1508F4C4
:1046B00047CFEACFEE2041F3FD81F93349F42FEFE4
:1046C00037EE43E0215030404040E1F700C00000A9
:1046D0008D810E94310B34CF8981869586958370B8
:1046E00069F0813009F02CCF8D8199819370F110A0
:1046F00002C090E080E00E94370A22CF8D8199812C
:104700009370F11002C090E080E00E94210A18CF5F
:104710008981837009F07CC0F11012CF2D81229520
:1047200026952770220F220F4D814F7050E070E0C8
:1047300060E0022E04C0440F551F661F771F0A94C5
:10474000D2F78D8080E090E0DC0184FE0FC08FE026
:1047500090E0A0E0B0E004C0880F991FAA1FBB1F23
:104760002A95D2F780959095A095B09599809694CA
:104770009694292D2370223059F1233009F441C039
:104780008090820490908304A0908404B09085046B
:10479000213099F0842B952BA62BB72B9C01AD01D2
:1047A000282139214A215B2129833A834B835C8369
:1047B000CA01B9010E94950BC3CE842A952AA62A64
:1047C000B72AA5019401282B392B4A2B5B2BECCF60
:1047D000842B952BA62BB72B4091820450918304F8
:1047E00060918404709185044C015D0184269526B6
:1047F000A626B72689829A82AB82BC82C501B40103
:10480000D9CF4A015B01882A992AAA2ABB2AF2CF6A
:10481000FF2009F452C0998090FE92CE2D812295FE
:1048200026952770220F220F4D814F7050E070E0C7
:1048300060E0022E04C0440F551F661F771F0A94C4
:10484000D2F7BD8080E090E0DC01B4FE0FC08FE0C5
:1048500090E0A0E0B0E004C0880F991FAA1FBB1F22
:104860002A95D2F780959095A095B09589808694E9
:104870008694282D2370223079F1233009F43FC02B
:104880008090860490908704A0908804B09089045A
:104890002130B9F0842B952BA62BB72B9C01AD01B1
:1048A000282139214A215B2129833A834B835C8368
:1048B000CA01B9010E949F0B43CEA980A1FE40CE40
:1048C000ADCF842A952AA62AB72AA5019401282BC0
:1048D000392B4A2B5B2BE8CF842B952BA62BB72BA0
:1048E00040918604509187046091880470918904F6
:1048F0004C015D0184269526A626B72606C04A01EE
:104900005B01882A992AAA2ABB2A89829A82AB82C9
:10491000BC82C501B401CECF29812F702983FF202D
:1049200029F0822F0E94A90B8D819ECE8D810E943D
:10493000070B89810E94DA0B03CE3D81333F60F47F
:10494000303F11F1313FE1F1FF2009F463C0E11084
:1049500058CE89818F7139C04D81433FC9F1443FA1
:1049600099F7FF2009F44AC029812F712983822FEA
:104970000E94A90B898038E0839EC00111248360C6
:1049800080934004882D21C0FF20A1F054E05E15E3
:1049900008F4D6CD89818F71898381E090E0A0E011
:1049A000B0E0098004C0880F991FAA1FBB1F0A949A
:1049B000D2F796CF85E0982E9E1408F4C1CDEACFA9
:1049C00089818F71FF2009F4B5CF0E94A90BB8CD62
:1049D00060E070E0CB01FF2009F46CCF29812F71DA
:1049E00081E090E0A0E0B0E04C015D0104C0880CE3
:1049F000991CAA1CBB1C2A95D2F787CF81E00E9484
:104A00000F0C992493949E1408F09ACD82E00E9492
:104A10000F0C96CDEE2061F02D81293309F058CE90
:104A20003FEF47EE53E0315040405040E1F74ECE6B
:104A300089818F717FCF61E0C8010E944C15B80158
:104A40000E94091E81110BCD80914004877009F4EA
:104A5000F4CCF8018281882309F4EFCC82E00F9036
:104A60000F900F900F900F90DF91CF911F910F91AA
:104A7000FF90EF90DF90CF90BF90AF909F908F907E
:104A80000C940F0C1F93CF93DF9380917904807F58
:104A9000A9F480917604882389F080914304C09121
:104AA00042047091740460917504A0917704B091F0
:104AB0007804D62FD72316E0C81304C0DF91CF9116
:104AC0001F91089590E0109711F0DF3F19F40196BF
:104AD0008770F2CF189F9001199F300D1124F901B2
:104AE000EC5BFB4F41816413F2CF40814713EFCF62
:104AF00042814111ECCF438154814A1B5B0B483CFE
:104B0000510528F7809179048F7080618093790432
:104B1000F901E75BFB4F80818F708061808384E7C0
:104B200094E00E940022DF91CF911F910C944D0AD6
:104B30008F929F92AF92BF92DF92EF92FF920F936C
:104B40001F93CF93DF93CDB7DEB72B970FB6F894B3
:104B5000DEBF0FBECDBF8C0185E0F801DE011796E8
:104B600001900D928A95E1F7F801E2803081218170
:104B7000A380B48084E7882E84E0982E809174040A
:104B80009091750440917704509178044115510536
:104B900029F0682F69236F3F09F01AC1EE2009F44C
:104BA00025C18F8198850E947715F82E882309F4F6
:104BB0001DC186E0F801A4E7B4E001900D928A954A
:104BC000E1F70E9442251EC0D09079046D2D607FD0
:104BD000483C510508F0A3C06111BFC0FE2C291349
:104BE00024C0831322C0E11020C08D2D8F708061FE
:104BF0008093790484E794E00E94002280917904F4
:104C0000F80185838F2D2B960FB6F894DEBF0FBE6B
:104C1000CDBFDF91CF911F910F91FF90EF90DF906B
:104C2000BF90AF909F908F900895AB2829F0822F6E
:104C300083238F3F09F08EC080E0F82FF170DF2EC4
:104C4000E09143044091420456E080FD1CC0EE20F8
:104C5000C9F280917904816080937904F12CD2CFDC
:104C60008E2F90E05E9FF0011124EC5BFB4F618181
:104C7000261306C06081361303C062816E11E7CF30
:104C80000196E82FE770E413EBCF8F8198850E949F
:104C90006B15292F22952F70903260F0225F2F70B4
:104CA000223078F49F7051F0F8019581907F31F4B3
:104CB000D12C0AC09F7011F08823D1F3805E883018
:104CC000B8F3C8010E940022FD2C9CCF8F819885EB
:104CD0000E947715882309F489C0EE2009F486C064
:104CE00080917904803270F0809174049091750401
:104CF0009A8389831B82BD82AC82DE82CE010196BB
:104D00000E94002286E0F801A4E7B4E001900D9231
:104D10008A95E1F70E944225FF24F39473CF611135
:104D200030C084E794E00E94002286E0F4011192F2
:104D30008A95E9F793CF8F8198850E947715811125
:104D4000E1CF80917904816080937904C8010E9449
:104D5000002258CF81E08E2570CF2913B7CF83135F
:104D6000B5CFE110B3CFF801D582C8010E9400226F
:104D700086E0F801A4E7B4E001900D928A95E1F78E
:104D800041CF2913A3CF8313A1CFE1109FCFF80107
:104D9000D582C8010E94002286E0F40111928A9512
:104DA000E9F730CF2913C7CF8313C5CF809179049A
:104DB00080FDDECF982F907FD9F2F8018583903F58
:104DC000A1F2982F907F905F8F70892B8583CDCF34
:104DD000F0907604B501641B750BAB01F110F4CEB5
:104DE000483C5105C8F6FE2CE110DCCFC8010E94FA
:104DF000002292CF1F93CF93DF93CDB7DEB7679793
:104E00000FB6F894DEBF0FBECDBF4B8B5C8B962FD9
:104E10006D8B7E8B8F8B6111109241041A8A85E015
:104E2000FE017396DE011D9601900D928A95E1F7C1
:104E30009F8786E0FE013D96DE01179601900D9258
:104E40008A95E1F7CE0107960E949825882389F07C
:104E500016E08091430490914204891349C06796FB
:104E60000FB6F894DEBF0FBECDBFDF91CF911F917B
:104E7000089586E0FE013796DE01119601900D92AD
:104E80008A95E1F78F8198852091420440914304EF
:104E90006A857B85672BE1F289238F3FC9F230E079
:104EA000C9010196877099274817190671F40E9465
:104EB000E617109242041092430486E0E4E7F4E01F
:104EC000DF011D928A95E9F7C3CF96E0929FD0014A
:104ED000939FB00D1124AC5BBB4FFE013196019046
:104EE0000D929A95E1F7809342040E944D0AB0CF4B
:104EF000819FC00111248C5B9B4F0E9498258823C1
:104F000009F4ADCF8091430490E001968770992712
:104F1000809343049ECF78941F921FB61F92112452
:104F20008F939F93AF93BF938091D5049091D604B4
:104F3000A091D704B091D8040196A11DB11D809312
:104F4000D5049093D604A093D704B093D804BF910E
:104F5000AF919F918F911F901FBE1F901895CDB755
:104F6000DEB7AE970FB6F894DEBF0FBECDBF84B7E5
:104F7000877F84BF0FB6F894A89580916000886100
:104F800080936000109260000FBE80E890E00FB642
:104F9000F89480936100909361000FBE85B780689C
:104FA00085BF85B7806885BF87E29CE09093C1018B
:104FB0008093C0010E94080D0E94B00D8091E20014
:104FC00084608093E200789480911F04882399F094
:104FD0008091E9001091EC001795112717958F70BB
:104FE000182B1092E9008091E80083FD0E94F117D0
:104FF0001F701093E90082E084BD93E095BD9AEFA5
:1050000097BD80936E0084E30E94460986EC0E945F
:10501000460987E90E94460985E30E94460986E61B
:105020000E94460986EF0E94460987EF0E944609C2
:1050300081E30E94460983E30E94460982E30E94BD
:10504000460986E30E94460986E0E2EEF4E0DF01CD
:10505000282F1D922A95E9F7ECEDF4E0DF011D926F
:105060008A95E9F70E94781CEFE3FCE93197F1F7A4
:1050700000C000000E94781C8091DC0480FF17C0F3
:105080006FEF82E290E00E94F1326FEF83E290E0F6
:105090000E94F1326FEF84E290E00E94F1326FEFF4
:1050A0007FEF90E080E00E940F330E94490C90E077
:1050B00080E00E94EB328B3E9E4F11F00E94BF1A9F
:1050C00082E290E00E94DD32863409F049C783E233
:1050D00090E00E94DD32843D09F042C784E290E016
:1050E0000E94DD328B3509F03BC783E080930A04D0
:1050F00080E28093E9010E94F8306DE070E08AE47C
:1051000097E00E94291B892B09F03FC080910A0477
:1051100063E070E081FDB2C087E497E00E94291B44
:10512000892B99F56DE070E087E397E00E94291BD9
:10513000892B59F50E94290CDC01CB01805A95413D
:10514000AF4FBF4F80930E0490930F04A0931004B1
:10515000B0931104EAE0F2E080E092E0DF019C010C
:105160001D9221503040E1F7F093E801E093E70110
:105170008FEF9FEF90930D0480930C0481E0809358
:1051800013048093120410920B0490E080E00E94BC
:10519000EB328B3E9E4F11F00E94BF1A82E090E0EE
:1051A0000E94DD32809315040E94CD159093EA048D
:1051B0008093E90483E090E00E94DD32282F30E004
:1051C00050E040E029A73AA74BA75CA7CA01B90164
:1051D0000E94950B8091DE01811136C090E080E045
:1051E0000E94EB328B3E9E4F21F00E94BF1A0E941C
:1051F000EF1588E090E00E94E5326093EE04709332
:10520000EF048093F0049093F1046E7F71F40E9498
:10521000EF1588E090E00E94E5326093EE04709311
:10522000EF048093F0049093F1040E94000A10921E
:10523000ED048091EE0480FF04C060E086950E943A
:105240001A1D81E08093DE0184988C9A85988D9A4E
:105250009FB18FB185FB882780F9880F9295917057
:10526000892B8093E1018CE091E090937F048093FF
:105270007E04EE24E394F12CB12CCAC184E497E0BF
:105280004DCF80911F04843021F11092290448E110
:1052900050E060E40FB6F894A895409360000FBE0C
:1052A0006093600083B7817F846083BF83B7816030
:1052B00083BF7894889583B78E7F83BF0FB6F894A9
:1052C000A8958091600088618093600010926000D2
:1052D0000FBE80911E04882361F00E94781CECEDC3
:1052E000F4E08191811126C682EE94E08E179F072B
:1052F000C1F780911F04853009F4C3CF0E94E617DF
:105300000E94150A8CC19F5FCC0C953009F09EC19C
:105310000F5F1F4F0630110509F08DC18FEF898394
:105320008A831B820E946C1C8160782F9D838C83F2
:1053300049815A816B81892F0E94FA26A4C108E213
:1053400010E0A4EB8A2EAFE09A2E883109F4B4C1A4
:10535000E8F48F3009F447C060F4863069F1893091
:1053600009F435C000ED17E05FE0852E5AE0952E78
:10537000A3C18531B9F7F0E0E45AF84FE4910E2F5C
:1053800010E096E6892E9FE0992E96C104EF11E079
:10539000F8E58F2EF0E19F2E843209F48DC185321D
:1053A00071F18332F9F6EAE5F7E0059114918AE9A3
:1053B000882E8EE0982E80C1F0E0EB59F84FE491F2
:1053C0000E2F10E04AE8842E4EE0942E75C1E6952B
:1053D000F0E0EE59F84FE4910E2F10E03AED832EF5
:1053E0003EE0932E69C1E695F0E0E15AF84FE49172
:1053F0000E2F10E024E0822E2FE0922E5DC18E2F22
:1054000063E00E94EB31E92FF0E0E95AF84FE491B4
:105410000E2F10E0B6E38B2EB7E19B2E4DC110E0AE
:10542000FAC12CE732E020C2F40114916D911617F5
:10543000A1F0BD0161507109FB011083BC01E5E0E1
:1054400076956795EA95E1F7F70102C0EE0FFF1F29
:105450006A95E2F7BF014E2B572B0196FFEF8F1A8B
:105460009F0A0CC28F5F95C2880F880F880F37E0A4
:10547000380F20E093E0ACC2EAEEF1E080E2DF0119
:105480001D928A95E9F7E7E5F1E0FEA7EDA703E5B0
:1054900011E0ADA5BEA56D91BEA7ADA7F8018191A4
:1054A0008F01840F952F911D9C01265F3D4F3AA7D8
:1054B00029A7E62FF0E0E651FE4F30E020E067E05C
:1054C000962E921AAE2C022E01C0AA0C0A94EAF76C
:1054D00029A43AA480E0D1019D911D019A21692D52
:1054E000681B6770862E062E000C770BB92F01C043
:1054F000BB0F8A94EAF771956195710967707727F8
:1055000001C096956A95EAF79B2B6081692B6083B1
:105510008F5F883001F72F5F3F4F3196283031057C
:1055200071F6EBE5F1E02DA53EA5E217F30709F0D2
:10553000B0CF04E610E020E230E04AEE51E06BC26A
:1055400000E210E0AE014F5F5F4F6A018091E8001A
:1055500085FD0AC08091E8008B778093E8000E9467
:10556000D70C882399F3BFC28091F100D6018D93A7
:105570006D010150110951F7B6C2E43150F4EE2328
:1055800059F0E150E33140F4F0E0ED53FC4C0C9461
:105590001F32EE3F09F4C3C28FEF898315C01A8210
:1055A00089E08B8311C08A81823009F4F2C4833090
:1055B00009F4BEC2813081F70E94290C0E94253275
:1055C0006B837C838D839E8380911F04843001F5DF
:1055D0008091E9001091EC001795112717958F70B5
:1055E000182B82E08093E9008091E80080FF0DC0D5
:1055F00050E040E060E270E0CE0101960E94270D8D
:105600008091E8008E778093E8001F701093E90086
:1056100080911F0400E112E1853009F46ACE0E94F6
:10562000781CD82E81110E94290CACEDB4E0E6E183
:10563000F4E010E000E0302F8D919191981709F47B
:1056400067CE292F282790E0CC24C394422F4C21E9
:1056500009F459CE99833A838C2191E009F490E0C2
:105660009B830E946C1C8160782F9D838C83498171
:105670005A816B81892F0E94FA26F801EA5EFB4F5E
:1056800080818C2580838091ED048823D1F18091E5
:10569000EC04E091EE04E695E81BE093D10482303F
:1056A00009F04DCEF0E0E859F84FE4910E2F10E0EC
:1056B00066E7862E6EE0962E8091D204882361F0F4
:1056C0001092D2040E946C1C9093D0048093CF045B
:1056D0001092D4041092D3040E946C1C2091CF0429
:1056E0003091D004821B930B8F3F9F4750F4200FC3
:1056F000311F3093D0042093CF048FEC94E0F40159
:105700000995E091E101EE0FEE0FE093E1012FB179
:105710008FB190E034E0969587953A95E1F78270E5
:10572000992724FB662460F88629E82BE093E101A1
:10573000EF70F0E0ED5BFE4F80819091E001890F0A
:105740008093E001C12C84305CF08091DF018F5F99
:105750008093DF0160E080E00E94BA21CC24C394F2
:105760008091E0018D3F5CF48091DF018150809356
:10577000DF0161E080E00E94BA21CC24C3948091D3
:10578000E001082E000C990B64E070E00E940B32DF
:105790008093E001C1100E94290C10911304112381
:1057A00009F47CC18AE092E09093E8018093E701DC
:1057B0004091E3015091E4016091E5017091E601AF
:1057C0002FB7F8948091D5049091D604A091D70476
:1057D000B091D8042FBF841B950BA60BB70B893C47
:1057E0009105A105B10508F451C00E94290C6093F0
:1057F000E3017093E4018093E5019093E6018091C9
:10580000040181110CCE8091E20190E0019681703B
:1058100099278093E201109304018091E20197019E
:10582000281B3109C90137FF03C091958195910962
:105830002CE732E0829FF001839FF00D929FF00DE4
:105840001124E459F84F2091E7013091E801C90192
:105850008A5092402E583F4F2130324008F4E1CD1B
:1058600020E032E0281B390B40910C0450910D04CC
:105870004F01DC01A65FBD4F280F391F8217930728
:1058800008F4D2CD50930D0440930C048091E901AB
:1058900026E0829FC0011124811532E0930714F0A5
:1058A00090E080E0865F9D4F9093E8018093E70150
:1058B0008FE79CE00E94371C88E79CE00E94371C21
:1058C00082E79CE00E94371C80E79CE00E94371C26
:1058D0008091860490918704A0918804B0918904F6
:1058E000AD016627772720E0411551056105710557
:1058F00019F0DB01CA0120E1492F5A2F6B2F7727BE
:10590000411551056105710519F0285FDB01CA01D8
:10591000AC01BD0104E076956795579547950A95CA
:10592000D1F7411551056105710519F02C5FDB01B7
:10593000CA01AC01BD0112E0769567955795479570
:105940001A95D1F7411551056105710519F02E5FC2
:10595000DB01CA01B695A79597958795892B8A2B68
:105960008B2B09F41FC384E69CE0222309F41EC399
:1059700080911304882309F462C020910C043091B3
:105980000D042115310509F45AC080910B048111D1
:1059900056C0082F10E02701082E02C0440C551CE9
:1059A0000A94E2F7A90144215521452B09F45ACD67
:1059B00020910A04922F917020FD56CD98013695C2
:1059C0002795369527958295880F80763FE1380F89
:1059D0008093070120930A013093080190930B01F3
:1059E00024E630E047E050E065E071E088E70E949F
:1059F0008931892B21F5A80175E0440F551F7A954F
:105A0000E1F780910A0480FD37CD465F5D4F04E6E3
:105A100010E020E230E060E488E70E94B631892B94
:105A200071F40E94581B4094509480910C04909102
:105A30000D048421952190930D0480930C04809192
:105A40001204882359F10E94290C69A77AA78BA711
:105A50009CA780910E0490910F04A0911004B09126
:105A6000110429A53AA54BA55CA5281B390B4A0BA7
:105A70005B0BDA01C9018F3F9F4FAF4FBF4770F4F7
:105A800080911304882351F062E070E089E89CE083
:105A90000E94291B892B11F410921204D11001C00D
:105AA000C1100E94581B0E94150A90911404891776
:105AB00021F00E94150A8093140480911F04843001
:105AC00009F0A6CD83E08093E9008091E80082FF91
:105AD0009FCD8091E80090E085FF06C00E94D70C22
